:020000040801F1
:1000000000000220DDCE0108B1560108B5560108F6
:10001000B9560108BD560108C1560108D9CE0108DC
:10002000D9CE0108D9CE0108D9CE0108C16801088E
:10003000D9CE0108D9CE0108E5680108CD4F0108E5
:10004000D9CE0108D9CE0108D9CE0108D9CE0108F0
:10005000D9CE0108D9CE0108254B01082B4B010848
:10006000314B0108374B01083D4B0108B1490108EC
:10007000C1490108D1490108E1490108F1490108D4
:10008000014A0108114A0108D9CE0108D9CE010858
:10009000D9CE0108D9CE0108D9CE0108434B0108B9
:1000A0008952010895520108A1520108AD52010878
:1000B000B9520108C5520108D1520108314E010858
:1000C000494E01083D4E0108554E0108D9CE0108A0
:1000D000D9CE0108415501084D550108595501086F
:1000E0004B4B0108D9CE0108D9CE010801530108B4
:1000F0000D5301081953010825530108214A01082D
:10010000D9CE0108D9CE0108DD520108D9CE0108A7
:100110006555010871550108E9520108F5520108B9
:10012000314A0108414A0108514A0108614A01085F
:10013000714A0108D9CE0108D9CE0108D9CE0108EB
:10014000D9CE0108D9CE0108D9CE0108816C0108A9
:10015000814A0108914A0108A14A0108D9CE010843
:10016000D9CE0108D9CE0108D9CE0108D9CE0108CF
:10017000D9CE0108D9CE0108D9CE0108D9CE0108BF
:10018000D9CE0108D9CE01080C4BDA68D1030ED4C0
:10019000D868C2060DD4D96811F0EF0F0BD1DA6818
:1001A00002F00203002B0CBF05200C207047012039
:1001B0007047032070470B20704700BF003C02408F
:1001C00013B50446FFF7E0FF0CE000230193FF2383
:1001D00001E00198431E019301990029F9D1FFF72D
:1001E000D3FF013C012803D1002CEED1062002E010
:1001F000002C08BF06201CBD70B5044641B1012982
:1002000008D0022914BF4FF440764FF4007603E083
:100210000E4601E04FF4807640F6FF70FFF7D0FF06
:10022000052820D1104D286920F440732B612A69DC
:1002300016432E61296921F0F80028612B6943F0EB
:10024000020214432C61296941F48030286140F690
:10025000FF70FFF7B5FF2B6923F002022A612969BD
:1002600021F0F8032B6170BD003C024000F178439F
:10027000B3F5803F05DA002BBCBF074BC3189B13B7
:1002800006E0B3F5003F02DB5B14043300E0042317
:10029000D8000321FFF7B0BFFF3F00F8134B00F178
:1002A00078429A4270B504460E461CD81F20FFF7CC
:1002B00087FF052818D10E4D296921F44070286167
:1002C0002B6943F480722A61296941F00100286199
:1002D0001F202680FFF774FF062805D02B6923F026
:1002E00001022A6170BD072070BD00BFFEFF07003C
:1002F000003C0240044B1A69002A03DA034904480F
:1003000059605860704700BF003C024023016745B8
:10031000AB89EFCD014B9868704700BF10E000E05B
:10032000014B1868704700BFB82C002038B5FFF7A4
:10033000F7FF0446FFF7EEFF054600BF00BFFFF7DB
:10034000EFFF8442F3D109480368DB0303D5FFF7CD
:10035000E1FF01340546C5F524354035A822B5FB3B
:10036000F2F54FF47A7101FB045038BD10E000E063
:100370003430013940F82120704705F0BDBB70478B
:10038000254A264B106040F2DC514FF47A72196016
:1003900059609960DA601A615A619A61DA611A6289
:1003A0005A62002307E001211D4A03EB010C42F8C9
:1003B00023105FFA8CF38342F5DB1A4B40F2DC51D9
:1003C000196059609960002308E0174A02EB830125
:1003D0004FF07E5C5A1CC1F800C0D3B28342F4DBFC
:1003E000002308E0114A02EB83014FF07E5C0133E9
:1003F000C1F800C0DBB28342F4DB002308E00C4A02
:1004000002EB83014FF07E5C0133C1F800C0DBB228
:100410008342F4DB704700BF0429002070270020CE
:10042000BC27002030290020B02A00205C290020B1
:10043000242600200849094B51F8202053F82010A9
:10044000531A00EE103ADFED067AB8EEC07A67EE86
:10045000276A16EE900A7047702700203029002086
:100460000BD7A33B2A4B07EE101A196801EE101A9E
:10047000D2ED040AB8EE410A07EE900A254830EEA4
:10048000606ADFED256A037886EE265A82ED040A5B
:1004900077EEC75A33B1D2ED051A45EE851AC2ED93
:1004A000051A01E000205061D2ED066A92ED056A5E
:1004B000F1EE667AB4EEE76AF1EE10FA08D4B4EE23
:1004C000666AF1EE10FACCBFF0EE667AF0EE467A8C
:1004D000D2ED034A92ED024A77EE643ADFED0F2A3D
:1004E00063EE843A65EE222A92ED013AC3EEA22A27
:1004F00082ED037A92ED007AC2ED057A67EE837A97
:1005000045EE877A37EEA22A12EE100A704700BF36
:100510006C26002004270020002474490000C842F3
:100520000C490D4B086807EE100AF8EE477A0022D6
:100530005A61C3ED047A1A63C3ED0B7ADA64C3ED32
:10054000127A9A66C3ED197AC3F88420C3ED207A33
:10055000704700BF6C2600208829002091ED005ACA
:100560009FED203A05EE900A9FED1F2A65EE037A73
:1005700045EE827AD1ED014ADFED1C2A44EEA27AE3
:1005800091ED024A44EE037AD1ED031A41EE827AEC
:1005900091ED047A9FED161A47EE017AD1ED056AC6
:1005A000DFED140A46EEE07A91ED066A9FED120A3D
:1005B00046EE007A91ED073ADFED103A43EE637AAA
:1005C000086081ED034AC1ED024A81ED015A81EDD7
:1005D000076AC1ED066A81ED057AC1ED047A17EE6E
:1005E000900A7047D58111BB7932F83A1A1B5E3BED
:1005F000382F5740200B89400A771C404CF3063FA8
:100600000D4B0E4A0020186058609860D860186141
:1006100058619861D861186258629862D86218630C
:1006200058639863D8631A645A649A64DA641A65E2
:100630005A659A65DA657047402800206DE71CC14D
:100640004160704710B5044605F0D0FD204605F026
:100650007AFE01462046FFF7F3FF0023237220466F
:1006600010BD2DE9F04104460D46007901211746E1
:100670001E4605F031FF2079002105F0D7FE204607
:1006800029463A463346BDE8F04105F0D5BDF8B5F8
:1006900004460D46007900211F46164605F01CFF52
:1006A000207A60F07F031D43E9B2204605F042FE48
:1006B0003D4606E02046002105F03CFE06F8010B11
:1006C000013D002DF6DC20790121BDE8F84005F060
:1006D00003BF07B501230DF10702FFF7D8FF9DF80F
:1006E00007000EBDF8B504460D46007900211F46EF
:1006F000164605F0F1FE237A1D43E9B2204605F0C7
:1007000019FE3D4605E0204616F8011B05F012FED5
:10071000013D002DF7DC20790121BDE8F84005F00E
:10072000DBBE07B502AB03F8012D1A460123FFF724
:10073000D9FF0EBD0248052101220323FFF791BF17
:100740003428002010B5064C204605F093FD012109
:1007500020460A460323BDE81040FFF782BF00BFD2
:100760003428002008B503460A4604481946FFF716
:10077000D8FF0120BDE8084005F04BBE342800201A
:1007800010B501460448FFF7A4FF0446012005F018
:1007900040FE204610BD00BF342800201E4B10B57F
:1007A0001C78002C36D101221A70FFF7C3FF752088
:1007B000FFF7E6FF00F07E0068282BD1174B186882
:1007C00040F0030119606B208021FFF7CBFF64200C
:1007D00005F01FFE6A201021FFF7C4FF6B200321E4
:1007E000FFF7C0FF6C202146FFF7BCFF1920214610
:1007F000FFF7B8FF1A200321FFF7B4FF1B201021D9
:10080000FFF7B0FF1C200821FFF7ACFFBDE8104048
:10081000FFF798BF10BD00BF00280020DC2A002091
:1008200001EBD171491004E0037842784370027003
:10083000023011F1FF31F7D27047000010B5064CBD
:1008400006483B2122460E23FFF721FF20460E21BA
:10085000BDE81040FFF7E4BFC22500203428002087
:10086000074810B5074C016822684B1C934203608F
:1008700004D0FFF7E3FF23685A1C226010BD00BFBD
:10088000F82700204C26002010B5074C07482168A7
:1008900002684B1C9342236004D0FFF7CFFF23680C
:1008A0005A1C226010BD00BFDC2600204C26002010
:1008B000024A034B1A60FFF771BF00BF58A00B3A02
:1008C000F02A002008B5FFF731FD124BDFED127A58
:1008D00093ED027AB4EEE77AF1EE10FA0F4B06DCF4
:1008E0009FED0F0AB4EEC07AF1EE10FA10D5196838
:1008F0000C4A411A01EE901A9FED0B1AF8EE616A4C
:10090000D2ED000AC6EE816A47EE260AC2ED000A61
:10091000186008BDF828002035FA8E3CF428002025
:1009200035FA8EBC1C2600200024744910B5FFF750
:10093000ABFF0D4B0D491C68B1F908000C4A241897
:100940001C6010605C68B1F90A00B1F90C105060CD
:10095000201858609868916041189960054B187884
:10096000421C1A7010BD00BFE8270020C2250020DD
:1009700008280020302800207FB51F4B1F4D1A6823
:1009800095F800C0596892FBFCF41D4A106856683F
:10099000241A91FBFCF0301A9E689168019496FB32
:1009A000FCFC0022CCEB01011A605A609A602A70AC
:1009B00001EE904A134A144B029000EE900A06EEA4
:1009C000901AD2ED007AB8EEE11AB8EEE00AB8EE6D
:1009D000E67A21EE271A20EE270A67EE277A03919E
:1009E00083ED001A83ED010AC3ED027A04B0BDE87D
:1009F0007040FFF767BF00BFE827002030280020C5
:100A0000A8260020F02A0020F828002070B5B2B0F7
:100A100000243194154D22E0FFF710FF144B14B958
:100A2000B3F9083005E0012C0CBFB3F90A30B3F973
:100A30000C304DF806300A20043605F0EAFCC42ECE
:100A4000EAD13121684631AA03F012FF319B192BFC
:100A500007DC0134E4B2032C45F8040F03D0002670
:100A6000DAE7002000E0012032B070BDA4260020AB
:100A7000C2250020FFF792BE08B5FFF7F1FE0C4B30
:100A80000C4A1868B2F900C000EB0C0119605868F4
:100A9000B2F90210B2F904C09A68401802EB0C01D6
:100AA00058609960044B1878421C1A7008BD00BF4A
:100AB00060270020C2250020C0260020F0B5114A82
:100AC000114C17781148124900231646114D5A59F6
:100AD00092FBF7F200EE102A04340430F8EEC06AFC
:100AE00094ED007AD0ED007A46EE877A002217EE78
:100AF00090CA5A5104330C2B41F804CFE6D132701E
:100B0000F0BD00BFC026002098270020082B002041
:100B10009C2A00206027002010B5002408E0FFF781
:100B20008DFEFFF7A9FF40F6C41005F06CFC013400
:100B3000B4F5C87FF3D1204820490023204C1A592E
:100B400000EE902A9FED1F0AB8EEE07A043087EE9F
:100B5000007AD0ED007A67EE277A17EE902A41F8F6
:100B6000042F00221A5104330C2BE7D11649174BDE
:100B700017481A7091ED022ADFED162A72EEC21A9A
:100B8000D1ED004A32EE211AD1ED013AB5EEC01A8C
:100B9000F1EE10FA104BB1EE644AB1EE633AD8BFF1
:100BA000B1EE411A80ED004A80ED013AC0ED021A23
:100BB00083ED001A10BD00BF982700209C2A00205A
:100BC000602700200000C843A02A0020C026002083
:100BD0000C2B00206DE71CC1EC280020044901EB20
:100BE000800393ED000AFDEEC07A17EE900A70477D
:100BF00050260020044901EB800393ED000AFDEE2E
:100C0000C07A17EE900A7047D028002010B5462011
:100C1000002105F00BFC0024462004F00101013402
:100C200005F05AFCE4B2322005F0F3FB0A2CF3D1B4
:100C30004520002105F0FAFB4520002105F04CFC81
:100C40004520002105F0F2FB4520002105F044FC81
:100C50002020032105F0EAFB1020032105F0E6FB2C
:100C60002420032105F0E2FB1120032105F0DEFB27
:100C70002520032105F0DAFB2220032105F0D6FB15
:100C80000321232005F0D2FB3720002105F0CEFB05
:100C90004020002105F0CAFB4120002105F0C6FBE1
:100CA0003420002105F0C2FB04481721162205F06C
:100CB00003FD0348BDE8104005F09CBB7C2B0020E1
:100CC000782B0020074B08490848094A19605860EA
:100CD0009A600849084B0948094A196058609A60A7
:100CE000704700BF9C270020A8E49C3A17F19DBAEA
:100CF00091459ABA00001843302700200000C041F7
:100D00000000844138B5074D074C2A682068131A43
:100D1000B3F57A7F05D3FFF709FEFFF7ADFE29682B
:100D2000216038BD6C260020FC2A00200448054ABA
:100D3000002303604360836013605360704700BF0B
:100D40001C280020502900202DE9F84F2DED068B9E
:100D5000DDED108A08EE103A68EEA82A48EE082A5F
:100D60009DED119ADDED127A49EE092AB6EE003AB0
:100D700027EE833ADFF83092864C874F874D884EB6
:100D8000DFF828A2DFF828B2DFF8288289ED003AE0
:100D900009EE900A12EE900A0AEE902A0AEE101A54
:100DA0000AF0C4FF0CF0CCFB0BF0F6FA02EE100ACE
:100DB00088EE825AD8F80000C9EE023AD4ED000A53
:100DC00097ED006AD5ED006A96ED000A66EE261AE8
:100DD00026EEA01A50EE201A06EE001A20EE000AA7
:100DE00016EE060A88EE024A06EEE60A00EEA00AB1
:100DF00071EE015A20EE058A15EEA38ADAED007A2B
:100E00009BED007A48EE077A71EEA14A25EE849AAE
:100E100064EEA38A18EE101A50EE048A14EE859A36
:100E2000CAED007A03F048FD434610B10022CAF82B
:100E30000020DFF88491DFF88481D9ED004A9BED32
:100E4000007A48EE874A83ED008AC9ED004AD8F857
:100E5000000018EE901A03F02FFD434610B1002059
:100E6000C9F80000DFF858819BED004A98ED005A60
:100E700009EE045ADFF84CB1C3ED008A88ED005A40
:100E8000DBF8000019EE101A03F016FD43465A462F
:100E900008B10021196082ED009A424AD2ED000AA1
:100EA00040EE89AA40EE889A00EEA8AAD3ED003A57
:100EB000D9ED006A9AED006A7AEEA3AAD5ED004A50
:100EC0003AEE26AA97ED007A79EE869A96ED005AC8
:100ED00064EEAA5A24EE8A0A47EE295A94ED001AC3
:100EE00015EE690A41EE4A5A2F4B25EE2A4A01EEC9
:100EF0006A0A17EE0A4A93ED003AF0EE452A65EECB
:100F00000A7A45EE832A01EE294AB0EE472A47EED7
:100F10002A7A00EE032AF0EE641A44EEE97A44EEEF
:100F2000031A22EEA26A02EE026A07EE831A01EEAB
:100F3000A16A01EE016A87ED002A16EE100AC6EDDD
:100F4000002AC5ED001A84ED001A0AF0EFFE0CF03D
:100F5000F7FA0BF021FAD7ED006A05EE900AD6ED0C
:100F6000000AD5ED003A94ED000AC6EEA56AC0EE7F
:100F7000A50AC3EEA53AC0EE255AC7ED006AC6ED34
:100F8000000AC5ED003AC4ED005ABDEC068BBDE881
:100F9000F88F00BF50270020442700204C27002056
:100FA00048270020F4270020A827002068260020DA
:100FB000B8270020CC260020C8260020D0260020FC
:100FC000A4260020D42600202DE9F8433C4C3D4EB9
:100FD0003D4D3E4F2DED048BD4ED005A96ED008A29
:100FE000D5ED007AD7ED008A68EE255A48EEA75A6B
:100FF000B7EE009A35EEA55A15EE100A0AF096FEE5
:1010000068EE084A48EEA84A804634EEA44A89466B
:1010100079EE443A13EE900A0AF088FE02460B4637
:10102000404649460CF0F0F80BF0B6F997ED006A2F
:10103000D4ED002AD5ED006A96ED003A66EE222A3C
:1010400056EE832ADFF8888032EEA22AC8F8000024
:1010500012EE100A0AF06AFE0CF082F80BF09CF90E
:10106000D6ED008AD7ED001A95ED007A94ED008A4E
:1010700068EEA11A48EE071AC8F8040031EEA11A6A
:1010800011EE100A0AF052FE68EE080A48EEA80AAD
:10109000044630EEA00A0D4679EE407A17EE900A2B
:1010A0000AF044FE02460B46204629460CF0ACF8F6
:1010B0000BF072F9C8F80800BDEC048BBDE8F883AA
:1010C000502700204C2700204427002048270020DC
:1010D0001C28002008B5FFF729FE0F4B0F491048C8
:1010E000104A4FF07E5CC3F800C000230B60036021
:1010F00013600D490D480E4A0B60036013600D49E3
:101100000D480E4A0B60036013600D480D490E4AEE
:101110000E4B08601A6008BD4427002048270020B5
:101120004C2700205027002068260020C8260020D9
:10113000A4260020CC260020D0260020D426002083
:10114000CDCC4C3EF42700206F12033AB827002084
:101150001FB5DDF818E0DDF81CC0074CCDF800E045
:10116000CDF804C024680294FFF7EEFD04B0BDE89A
:101170001040FFF729BF00BF380C002008B5FFF76B
:10118000FFF80A4A0A4B40F2DC514FF4FA60116052
:10119000196051605960916099600021D160D960F7
:1011A000106119615061596108BD00BF70270020AE
:1011B00030290020014B53F8200070477027002091
:1011C00038B5002434E02046FFF7F4FF1B4A1C49E1
:1011D000A30003EE100AD518CA1895ED007AD2EDD7
:1011E000002AF8EEC36A1748174946EE872ACB183B
:1011F000BDEEE22A12EE105A40F82450134D55F875
:10120000242001EE102AF8EEC21AF8EEC10A11EEFF
:10121000900A10EE901A1A6803F012FB00EE100A02
:10122000FDEEC07A17EE900A45F824000134E4B2CE
:10123000074803689C42C6DB38BD00BFB02A0020C7
:101240005C290020D025002024260020BC27002077
:1012500004290020FA31024B890043F8201070471E
:101260007027002038B50B4D00240EE00A4A0B48C9
:1012700014F802C055F8042F00EB0C1392B2596811
:101280000868597BFFF774F8013405490B689C42E4
:10129000ECDB38BD7C26002010010208A4190020D8
:1012A000C828002038B5054600240BE0084B094843
:1012B000E15C00EB011301345A68597B1068AAB253
:1012C000FFF756F8044802689442EFDB38BD00BFD0
:1012D00010010208A4190020C8280020F8B51E4DEE
:1012E0000728C8BF08202860002418E01B4E1C4FA8
:1012F000A65D07EB061701347868007903F054FE09
:1013000018497B68B0FBF1F21B68511E88B240F6A9
:10131000055298620721DA62304605F087F829689D
:101320008C42E3DB00230EE00C480D4A13F800C0AA
:1013300002EB0C1250680268500100F18442012057
:10134000C2F880021B188B42EEDB4FF47A70BDE8C6
:10135000F840FFF7A7BF00BFC8280020100102080F
:10136000A419002040420F0038B5054600240FE0C4
:1013700040F24C40FFF796FFFA2005F04AF84FF490
:101380007A70FFF78FFFFA2005F043F80134E4B2DA
:10139000AC42EDD138BD00002DE9F0412DED108BB0
:1013A0008CB0DDED228A08EE103A28EEA81A08EE7D
:1013B000081A9DED239A0A9109EE091A4FF07C5103
:1013C00003EE101ADDED270ADFF86083099060EE66
:1013D000830A11EE100A0B92C8ED000A9DED25AAB2
:1013E0000AF0A4FCDDED249ADDED26AA0CF0A8F8A5
:1013F0000AF0D2FF2AEE0A0A09EEA90A0AEEAA0AA0
:1014000002EE900A10EE100A88EE22FABD4EBE4D92
:10141000BE4CBF4FC8EEA2FAC9EE22EA0AF086FC23
:101420000CF08EF80AF0B8FF09EE100A8AEE09BA3D
:101430004FF07C50C9EE89BA8AEE899AD6ED001A2F
:1014400003EE100A95ED006A94ED007A01EEE13AA0
:10145000D7ED005A7BEE0B9A27EE071A26EE06EA26
:1014600008EE100A3BEEAB4A21EE862A65EE870AAB
:10147000CDED019A79EE098A73EE412A9DED010ABC
:101480008DED004A38EE4EAA32EE204ACDED028AAA
:10149000DDED014A72EE608ADDED00AA7AEE416A66
:1014A00026EE07DA65EEA1DA20EE228A9DED005ADB
:1014B00065EE86CA21EE87CA0AEE848A64EEA88A9F
:1014C00045EE268A7DEE6D9A9DED029A7CEE2C3AD1
:1014D000DDED027A09EE298A47EEA38A28EE088A12
:1014E00008EEA88A8DED033A18EE100A0AF01EFCE9
:1014F0000CF026F8D7ED008A95ED009A96ED008A5B
:10150000D4ED009A68EE89AA58EE29AA28EE085A66
:101510003AEEAAAA18EEA85A8DED04AA29EE29AA35
:1015200069EE096A08EE88AA29EEA97A75EE661AAC
:101530007AEE0A4A71EE875ACDED054ACDED066A7C
:101540008DED077ACDED085A0AF026FF9DED086A69
:10155000DDED052A66EE2F4A52EEAE4A9DED040AF5
:101560006C4A6D4BD2ED006A93ED004A60EE2E1A84
:1015700056EE0F1A02EE100A6848694B44EE846A70
:10158000D0ED005ADDED010A3DEE2DDADDED003A39
:101590003CEE6CCA41EE845ADDED037A20EE8D1AE2
:1015A000C2ED006A03EE8C1A5E4A9DED023A37EEF8
:1015B000CEEA62EE8F0AD2ED003A50EE2F0A9DED90
:1015C000095AC0ED005A03EE0E1A4FF07C5093ED0D
:1015D000000A03EEA45A02EE900A9DED066A00EEA0
:1015E000840A72EEC64A9DED074A28EEA93A31EE0A
:1015F000011A9DED0A7A18EE093A75EE266A32EE66
:10160000022A34EEC45A03EEA17A61EE0A1A21EEE0
:101610002A1A02EE051A42EE031ADDED0B7A2BEEC2
:10162000011A43EEA07A83ED000A1BEEA11A3E4B8D
:1016300077EE255A93ED007AF0EE670A41EE070A3D
:1016400069EE257A30EE806A58EE667A69EE063ADF
:1016500048EEA63A28EE063A49EEE53A49EEC67A51
:1016600018EEA53A98ED002A68EE252AB0EE484A11
:1016700003EE824A09EEA63A48EE862AF0EE684A60
:1016800047EE824A49EE662AB0EE495A03EE025A04
:1016900064EE041A44EEA41A42EE829A45EE051A4C
:1016A00049EEA91AC7ED004A11EE900A86ED004AEC
:1016B00085ED005AC4ED009A0AF038FB0BF040FFAC
:1016C0000AF06AFE97ED001A07EE900AD6ED000ABE
:1016D00095ED000A94ED007A81EE271AC0EEA70A74
:1016E00080EE270AC7EE277A87ED001AC6ED000ABA
:1016F00085ED000AC4ED007A0CB0BDEC108BBDE89E
:10170000F08100BF002B0020042B0020082B0020BC
:10171000C428002048290020F42A00202026002088
:10172000D82600201829002058290020142800203D
:101730002DE9F8433C4C3D4E3D4D3E4F2DED048B85
:10174000D4ED005A96ED008AD5ED007AD7ED008AE7
:1017500068EE255A48EEA75AB7EE009A35EEA55A1C
:1017600015EE100A0AF0E2FA68EE084A48EEA84AB6
:10177000804634EEA44A894679EE443A13EE900A44
:101780000AF0D4FA02460B46404649460BF03CFDAF
:101790000AF002FE97ED006AD4ED002AD5ED006A4A
:1017A00096ED003A66EE222A56EE832ADFF888800C
:1017B00032EEA22AC8F8000012EE100A0AF0B6FAB9
:1017C0000BF0CEFC0AF0E8FDD6ED008AD7ED001A4A
:1017D00095ED007A94ED008A68EEA11A48EE071A9A
:1017E000C8F8040031EEA11A11EE100A0AF09EFAB0
:1017F00068EE080A48EEA80A044630EEA00A0D4634
:1018000079EE407A17EE900A0AF090FA02460B46FB
:10181000204629460BF0F8FC0AF0BEFDC8F8080087
:10182000BDEC048BBDE8F883082B0020042B0020BE
:10183000C4280020002B0020F0260020024B186056
:1018400059609A60704700BFF02600202DE9704F64
:101850002DED068B8CB008EE100A1A9809EE902A2E
:101860001E4608EE901A0AF061FA81463046884614
:101870000AF05CFA02460B46484641460BF0C4FCAF
:101880000AF08AFD68EEA80A48EE080A49EEA90A9D
:101890000AEE900A10EE900A0AF048FA0BF050FE99
:1018A0000AF07AFD00EE100A88EE009A4FF000066A
:1018B00088EE808AC9EE808A68EEA89AF0EE697A8E
:1018C00049EE097A17EE900A0AF030FA0BF038FE6A
:1018D00004460D4618EE100A0AF028FA22462B4656
:1018E0000BF092FC0AF058FDF5EEC08AF1EE10FA0A
:1018F0000AEE100A02D5B1EE4AAA0AE09FED7A1A62
:10190000B5EEC08AF1EE10FAACBF3AEE41AA3AEE5B
:1019100001AA48EE089AB6EE008A19EE900A0AF07B
:1019200005FA0BF00DFE04460D4619EE100A0AF0FA
:10193000FDF92B4622460BF067FC0AF02DFD08EE60
:10194000900A1AEE902A1AEE100A18EE901AFFF773
:1019500075FF6AEE087A17EE900A0AF0E7F9044676
:101960000D460BF06FFB68EE887ACDE9020117EEA9
:10197000900A0AF0DBF9804689460BF063FBCDE95B
:101980000601DDE90623DDE902010AF023FA6AEE29
:10199000887ACDE9080117EE900A0AF0C7F9CDE977
:1019A00004010BF04FFBCDE90001204629460BF066
:1019B0008BFB82468B46404649460BF085FB04462E
:1019C0000D4622462B46504659460AF003FACDE909
:1019D0000A01DDE904010BF077FBDDE90023804615
:1019E0008946DDE908010AF0F5F94246CDE904012E
:1019F0004B46DDE90A010AF0EDF902460B46DDE946
:101A000004010AF035F80AF0C7FC384B5946186053
:101A1000DDE9062350460AF0DDF9224682468B4670
:101A20002B46DDE902010AF0D5F9DDE90023044681
:101A30000D46504659460AF0CDF94246CDE902011D
:101A40004B46204629460AF0C5F902460B46DDE919
:101A500002010AF00BF80AF09FFC254B294618609A
:101A6000DDE9002320460AF0B5F9424604460D465A
:101A70004B46504659460AF0ADF902460B46204601
:101A8000294609F0F5FF0AF087FC1A4B4246186018
:101A90004B46DDE908010AF09DF9DDE90023044623
:101AA0000D46DDE90A010AF095F902460B4620468B
:101AB000294609F0DBFF0AF06FFC0F4B0F4A186054
:101AC0000F4B10491E60104B1E60104B1E60104BD8
:101AD0001A60104B0B6010490A60104A13600CB07A
:101AE000BDEC068BBDE8708FDB0F4940C428002099
:101AF000002B0020042B0020082B0020CDCC4C3ED6
:101B000048290020F42A002020260020D826002082
:101B1000182900206F12033A58290020E4260020DB
:101B200007B50549054B0868054A009000200146A5
:101B30001B68FFF78BFE0EBD1C2700201827002016
:101B4000CDCC1CC110B586B0099CDDF820C0019435
:101B50000C9CDDF828E0CDF800C00494DDF82CC022
:101B60000D9CCDF808E0CDF80CC00594FFF714FCEF
:101B7000FFF7DEFD0248034B82681A6006B010BD15
:101B8000F0260020C42600207FB50F4B0F4A59686D
:101B90000091D3F808C00E49CDF804C0086802903F
:101BA000D1F804E00B48CDF80CE0D1F808C0CDF82E
:101BB00010C001680591106851681B689268FFF7B2
:101BC000C1FF07B000BD00BFE0280020F8280020BA
:101BD000D0280020380C002010B5044602F0F7FD94
:101BE00001EE900AB8EEE11A84ED011A02F0EFFD61
:101BF000404200EE900AB8EEE00A84ED020A02F0DC
:101C0000E6FD07EE100AF8EEC77AC4ED007A10BDC3
:101C1000F8B5474D474C2DED088B07460E461E2064
:101C2000032102F0B7FD1E210622434804F0BEFD49
:101C30002846FFF7D1FF1E200221012202F0E8FD15
:101C40003E4B3F4A3F494048D3ED003A93ED013ABD
:101C500095ED022AD3ED022AD5ED009A95ED019A71
:101C600072EE228A39EE039A79EEA39AC2ED008AC7
:101C7000C4ED009A80ED009AC1ED028A3846C1EDAC
:101C8000009A81ED019A0AF051F804460D460BF0D6
:101C9000D9F90AF081FB29460BEE100A20460BF019
:101CA00013FA0AF079FB0AEE900A30460AF03EF881
:101CB00004460D460BF0C6F906460F462046294657
:101CC0000BF002FA0AF068FB39460AEE100A3046B9
:101CD0000AF062FB69EE2A1A01EE100A21EE8A8AE6
:101CE00009EE818A68EE8B0A68EEAA8A59EE0B8AA1
:101CF00000EE8A8A28EEA80A08EE080AF1EE688A41
:101D000010EE100A0AF012F80BF01AFC0AF044FB6D
:101D100007EE900A88EE277A0C480D4BC8EEA77A9A
:101D200080ED007AC3ED007ABDEC088BF8BD00BFF2
:101D300050260020242700207C2B00203027002064
:101D40002C270020D028002028270020182700203A
:101D50001C2700200A2008B504F05BFB1E2002F0BF
:101D60003BFD102804D10D4B186840F004021A60A6
:101D7000012120221E2002F04BFD142004F049FB1B
:101D800002211E20012202F043FD142004F041FB39
:101D900000200146BDE80840FFF73ABFDC2A0020DA
:101DA0000548064B90ED007A93ED000A77EE407AF5
:101DB00017EE900A704700BF70260020782600209A
:101DC00030B5C489002224F0FF03C38113464FEAD3
:101DD000620112F0010F15BF10F8111030F8111048
:101DE0004B4083EA1123082113F4004F4FEA4303C9
:101DF0001DBF83F440554FF6FE732B409BB2013953
:101E0000F2D10132102AE2D1C481180B30BD00009A
:101E100070B5124D0646A0243046214602F0BAFCA9
:101E200002220F48314604F0C1FC022813D102F00F
:101E3000C5FC0234E4B2B02C25F8020FECD1094CF9
:101E40002046FFF7BDFFE18901F00F03C21A50429F
:101E500040EB020070BD002070BD00BF06290020CD
:101E60007C2B0020082900201E2102F093BC0000DA
:101E700010B50021044602F08DFC032221460B48D8
:101E800004F094FC094804F0A4FC03280BD102F0F0
:101E900093FC044602F090FC000240EA044402F085
:101EA0008BFC204310BD002010BD00BF7C2B002008
:101EB0007620582102F06EBC2DE9F8437620FFF71A
:101EC000D7FF1849184A8B884C8910604FEA03489D
:101ED00024020B89154D041BA3FB04674FEAE47C25
:101EE00003FB0C77F20942EA4762FB114FF000094D
:101EF00012EB080243EB0903C5E900234B88DE031C
:101F0000CB880B49A3FB044503FB0C55220A42EA8C
:101F1000056200272B12921943EB0703C1E9002346
:101F2000BDE8F88308290020182800205827002041
:101F3000F82500207620482102F02CBC38B5762008
:101F4000FFF796FF124B134918600B684968C217D8
:101F5000414303FB0212A3FB00010F4B5118D3E9CD
:101F60000023440D44EAC1244D15A21A65EB030376
:101F7000900A40EA835099120AF02EFBDFED077AAF
:101F800006EE900A66EEA76A16EE900A38BD00BF0C
:101F90003C270020F8250020582700200000003DA5
:101FA00038B5164C23782DED028BF3B1144D95ED19
:101FB000008AFFF7C3FF07EE900A124938EE278A1E
:101FC00085ED008A0D786A1C0F4D0A702878142858
:101FD00005D1FFF76DFF00232B70237001E0FFF7A1
:101FE000A9FF2A78501C287005E0FFF765FFFFF76E
:101FF000A1FF01212170BDEC028B38BDE02600203D
:10200000F82A0020BA260020082600200000000040
:10201000F8B52D4D2B78002B51D006EE903A2B4C75
:102020002B4B94ED007AF8EEE67AC7EE277A9FED17
:10203000297AC7EE876AC3ED007A16EE900A09F096
:1020400075FE254B064618680F4609F06FFE0246DE
:102050000B46304639460BF0D9F802460B460020B5
:102060001E491F4E09F002FD15A3D3E9002309F014
:10207000B1FE0AF091F91B4B18601B4B197819B18E
:10208000002230601A7005E0184B31681A6802F0BF
:10209000D7FB306000222260154C20780021297087
:1020A00068B9FEF743F913490B68C3EB000C1248FB
:1020B000844504D93068114B012218602270F8BDA4
:1020C0000000000040A5E540BA260020F82A0020C4
:1020D0000428002080E6C547180C00200000F03FCF
:1020E00070260020E4270020100C0020000C0020A7
:1020F000A0260020842900208096980078260020C1
:1021000008B5FFF74DFFBDE80840FFF781BF0000AD
:1021100010B52DED028B9FED0C8A1924FFF7F0FF0F
:102120000A4BD3ED007A0C2038EE278A04F071F9BF
:10213000013CF3D1B3EE090A88EE000A044880EDB1
:10214000000ABDEC028B10BD00000000E427002057
:102150007826002010B5FEF7E9F81A4C1A492060DD
:102160001A4A1B4B1B4C1A60002008602060762026
:10217000FFF77AFE032004F04CF97620FFF748FEC3
:1021800020B1154B186840F008021A60FFF790FE66
:102190001249134800230B7003700A2004F039F928
:1021A000FFF7FEFE0A2004F034F9FFF7A9FF0A202A
:1021B00004F02FF9FFF7ACFFFFF7AAFF2168094AE7
:1021C000116010BD8429002004280020AEDC423EAE
:1021D000180C002078260020DC2A0020E0260020B1
:1021E00008260020702600200D480E490E4A0F4B8D
:1021F00070B50468086811681A680D4BC0EB040CD0
:1022000020180CEB0106C1EB0C054418411AB61A54
:10221000AD18A4188A1A1E605D60DC609A6070BDFB
:10222000280C00207C260020E02A00203C290020E9
:10223000802600202DE9F843404B414E1A78414F4B
:10224000012A984675D1404DFFF7AAFD2C683F4AF8
:1022500001462046FEF706F900EE100A3C49FDEE65
:10226000C06A0C6816EE900AA042894604DB394B1E
:102270001C68A042B8BF044614F57A7F59D0364A8C
:1022800000201168354AFEF7EDF807EE900AD9F8FC
:10229000000000EE900AB1EE677AF8EEE07AB4EE54
:1022A000E77AF1EE10FA0CD42A4B196801EE101AF5
:1022B000F8EEC17AB4EEE77AF1EE10FAD8BFF0EE9C
:1022C000477A274A27491368FA680868C2EB030C63
:1022D000BCF1000FB8BFCCF1000C844503DD022037
:1022E00088F8000018E02049096803EB010E7245E8
:1022F00007DD95ED002ADFED1D1A32EE217A85ED1E
:10230000007A581A824207DAD5ED003A9FED173A63
:1023100073EEC32AC5ED002A1C1905EE904AB8EEEB
:10232000E55A75EE274ABDEEE44A86ED004ABDE85F
:10233000F883FB683360BDE8F88300BFDC28002029
:10234000280C0020702700201C290020682A00206B
:10235000200C0020300C0020C0280020842A0020FF
:10236000340C0020040C00200C0C00200AD7233C65
:102370002DE9F0472DED028B3D483E4C03783E4E53
:102380003E4D012B46D1DFF81C91DFF81C81D9F8B6
:102390000020D8F80070D11B03EE101A9FED388A88
:1023A000F8EEC32A374F384A396822EE882A12EEEF
:1023B000100AFEF757F8D8F804307A688246D9F840
:1023C0000400C3EB000C01EE90CAB8EEE11A82F0F3
:1023D000004121EE087A2D4A17EE100AFEF742F866
:1023E00021682B4A07465046FEF73CF800EE900A5B
:1023F0006168284AFDEEE07A384681F00041C6ED7A
:10240000007AFEF72FF800EE100AFDEEC06AC5ED67
:10241000006A28E0204F0020FEF70CF8D4ED000AF7
:10242000D7ED007A20EEA70A1C4A10EE101AFEF72C
:1024300019F806EE900ABDEEE66A012086ED006A04
:10244000FDF7F8FF94ED015AD7ED005A65EE654AA5
:10245000134A14EE901AFEF705F804EE100AFDEE8A
:10246000C43AC5ED003ABDEC028BBDE8F08700BF71
:10247000D82A0020F8280020E02A00207C2600200E
:10248000A69BC43A1C280020DC290020F829002043
:10249000302A00204C2A0020140C0020882900201B
:1024A000A429002070270020302900201B4B1A7817
:1024B0001B4B032A0CD0052A19D0012A0CBF4FF45C
:1024C000FA624FF47A721A605A609A60DA6023E016
:1024D00014480268B2F5966FB4BF11464FF4966186
:1024E000B2F57A7FACBF0A464FF47A72EBE700226E
:1024F0000D495158B1F57A7F05DBB1F5966FA8BF4C
:102500004FF4966101E04FF47A7199500432102A29
:10251000EED1064B01221A70FEF7A4BEB8260020A9
:10252000802600201C0C002008270020E42A002020
:10253000074A1368B3F57A7F05DB40F23A718B42A4
:10254000A8BF0B4601E04FF47A731360704700BFD9
:10255000280C0020154A164B106816494FF4FA62F1
:1025600010B59A60DA601A605A60134B08604860D0
:102570008860C86093E8060098689142B8BF114629
:10258000DA688142B8BF01469142B8BF11460022C5
:10259000B1F5FA6F05DD9C58C1F5FA6C04EB0C003F
:1025A00098500432102AF3D110BD00BFEC26002051
:1025B000202900200C26002080260020034B1A78BA
:1025C000A2F10101484240EB010070474029002080
:1025D00038B5FFF7F3FF0F4CC0B12378022B18D0AA
:1025E0000D4D287878B9FFF7DBFB0C490C4BC1F88F
:1025F000EC0018600B480C4B0022C1F8F420C268B4
:1026000001211A6029700120207038BD0249207014
:10261000087038BDDC280020AC2A00208829002062
:102620001C29002070270020340C0020F8B55C48DD
:102630005C4E03785C4C012B7ED15C4A5C495D4B5F
:1026400092ED007ADFED5C7A5C4A67EE277A9FEDC7
:102650005C6A92ED007A77EE465A77EEC76AF4EE3E
:10266000E57AF1EE10FAC1ED007AC3ED006A05D803
:102670009FED540A76EE806AC3ED006A77EE060A93
:10268000F4EEE07AF1EE10FA07DB93ED002ADFEDCD
:102690004D1A32EE611A83ED001AF06840F24C4C8C
:1026A000604542DD3F488168A1F5B860C11E32290E
:1026B0000ED945490023C2ED007AC1F8A030434A43
:1026C0004349236000201070424B0A681A6033E0CF
:1026D00093ED007AF5EE002AB4EEE27AF1EE10FA0C
:1026E00006D5BDEE003AB4EEC37AF1EE10FA1EDC68
:1026F0003649384D0878364F68B93B682F683648F8
:10270000DF1B874218D90120C2ED007A0022087031
:102710002B60226010E017EE101A00202F4AFDF700
:10272000A1FE39682060296006E0C2ED007A264AE1
:1027300000232360C2F8A030294BB2689968501A70
:1027400007EE900AD4ED004AF8EEE73ADFED257A7D
:102750009FED254A64EEA77A43EE847A9FED237AB3
:10276000F4EEC77AF1EE10FA0BD49FED215AF4EE95
:10277000457AF1EE10FACCBF15EE100A17EE900A6A
:1027800001E017EE100A1B491B4A8968FDF76AFE33
:1027900005EE900A1948BDEEE56A80ED006AF8BDC5
:1027A000A126002070270020AC270020C42600208E
:1027B0007426002040270020E12E654200270020DB
:1027C000000034430000B44388290020B9260020CB
:1027D0006C260020FC27002020A10700142A0020DE
:1027E0003029002035FA8E3C0BD7A33BDB0F49C0C4
:1027F000DB0F4940F8280020C02900203C29002098
:10280000F8B5FFF7B5FDFFF711FF28480368D807B3
:1028100003D4FFF70FFDFFF78BFE254C217821B184
:10282000244D2A780AB1FFF7DFFCFFF793FE224B15
:102830002249D86840F24B4C604501DD002315E089
:102840001F4A204E204F126836783D780023CA5028
:102850002EB1002D14BF10464FF4FA6000E0104670
:102860001A4FD8510433102BF1D1E7E71848CA5852
:102870001D58954204DB154A9A589542B8BF2A461E
:10288000C2500433102BF1D1217809B9FFF70EFEA5
:102890002078012809D1074B93F800E0BEF1010F21
:1028A00003D1BDE8F840FEF7DDBCF8BDB427002039
:1028B00000260020E42A0020702700200C2600209B
:1028C000EC26002004270020D82A00202029002000
:1028D0008026002038B585B22946074801F02BFF35
:1028E0000024A91C60F30F0489B2034801F023FF00
:1028F00060F31F44204638BD182B002038B504462D
:102900008DB22946A2B2054801F01DFFA91C03485B
:1029100089B2220CBDE8384001F015BF182B002009
:102920000B4A38B51C2404FB002408460D46FFF76B
:10293000D1FF2060281DFFF7CDFF606005F1080082
:10294000FFF7C8FF0023A060E360636138BD00BFEC
:102950008829002038B5094B1C2404FB00340D469F
:102960002068FFF7CBFF6068291DFFF7C7FFA0684D
:1029700005F10801BDE83840FFF7C0BF88290020F5
:10298000F8B5424A424C434E434B444F44494548B4
:10299000454DA660666262652267C4F8B060C4F8FF
:1029A000CC60424A23604FF07E56E361A763C4F8CF
:1029B0008C10C4F8A8303E49C4F8C43006603D4BC2
:1029C0003D483E4F65602562C4F8E42000256FF065
:1029D0003102C4F89010C4F8E030C4F8F830A565AE
:1029E000374BE5656567A567E7632564C4F89450D0
:1029F000C4F8AC50C4F8C850C4F8E850C4F8FC504F
:102A0000C4F80051C4F8045102602E4A3220186004
:102A100011602D4B2D4A5A20FA2118601160FEF7E3
:102A200051F92B4B2B482C4A03602C49A36163635B
:102A30002365E366C4F88830C4F8A430C4F8C03015
:102A4000C4F8DC30C4F814311660254B254A40F236
:102A50007E4008601A6024482449254A0823013B27
:102A6000DBB240F8046F41F8045F42F8046F002BBA
:102A7000F5D12048204903704FF07C5C1F4A204864
:102A8000C1F808C0012111700760F8BD0000604066
:102A9000882900200000AFC30000C842000048435E
:102AA00000004040140C0020000016439A99193F82
:102AB000CDCCCC3D0000C841200C00200000A0403F
:102AC000300C0020000C00200C0C0020040C002016
:102AD00000007A440426002020270020EC26002055
:102AE000EC2800200AE81CC1AC2A0020582900204C
:102AF00020260020D82A002024260020A1260020FD
:102B00006C270020002038B50146FFF709FF01209F
:102B10002421FFF705FF02201821FFF701FF032002
:102B20000C21FFF7FDFE04203021FFF7F9FE052000
:102B30003C21FFF7F5FE06204821FFF7F1FE542166
:102B40000720FFF7EDFE4FF4A670FFF7C3FE4B4CD6
:102B50004B4D206060210820FFF7E2FE4FF4A0708B
:102B6000FFF7B8FE474CC4F8F8004FF49E70FFF72B
:102B7000B1FE454A10604FF4A270FFF7ABFE06EEBF
:102B8000100A4249FDEEC65A4FF4A470C1ED005A36
:102B9000FFF7A0FE05EE100A3D4BFDEEC54A4FF4CF
:102BA0009C70C3ED004AFFF795FE04EE100A394809
:102BB000FDEEC43AC0ED003A4FF49A70FFF78AFE7A
:102BC00003EE100AFDEEC32A0920C5ED002A6C2190
:102BD000FFF7A6FE4FF4B470FFF77CFE2E4D286081
:102BE0004FF4B670FFF776FE68604FF4B870FFF7E9
:102BF00071FEA8604FF48C70FFF76CFE274AA0614D
:102C0000106060632065E066C4F88800C4F8A40022
:102C1000C4F8C000C4F8DC00C4F814014FF490708C
:102C2000FFF758FE02EE100A1D49FDEEC21A4FF4DE
:102C30009270C1ED001AFFF74DFE1A4B18604FF469
:102C40009470FFF747FE01EE100AFCEEC10A164829
:102C500010EE902A02704FF49870FFF73BFE134974
:102C600008604FF49670FFF735FE00EE100AFCEE98
:102C7000C07A0F4B17EE900A187038BD140C002064
:102C8000300C002088290020000C00200C0C0020B3
:102C9000040C0020200C00203027002004260020F7
:102CA000EC2600206C270020D82A0020EC280020E9
:102CB000A1260020F8B572B600200146FFF74AFEB3
:102CC00001202421FFF746FE03200C21FFF742FEDE
:102CD00004203021FFF73EFE02201821FFF73AFEC4
:102CE00005203C21FFF736FE644D654C654E0620FD
:102CF0004821FFF72FFE07205421FFF72BFE2868FD
:102D00004FF4A671FFF7FAFD08206021FFF722FEBD
:102D10005D4A4FF4A071D2F8F800FFF7EFFD5B4970
:102D200008684FF49E71FFF7E9FD2068584C03EEE8
:102D3000100AF8EEC32A4FF4A27112EE900AFFF7C0
:102D4000DDFD544B1F6802EE107AF8EEC21A4FF404
:102D5000A47111EE900AFFF7D1FD35684E4F4F4E2A
:102D600001EE105AF8EEC10A4FF49C7110EE900A71
:102D7000FFF7C4FD4A4A4B4D116800EE101AF8EEF9
:102D8000C07A4FF49A7117EE900AFFF7B7FD092049
:102D90006C21FFF7DFFD20684FF4B471FFF7AEFD43
:102DA00060684FF4B671FFF7A9FDA0684FF4B871E1
:102DB000FFF7A4FD3C484FF48C710068FFF79EFDBF
:102DC0003A4B4FF48E711868FFF798FD002404F118
:102DD0009C0157F8040FFFF791FD04F1A00156F88C
:102DE000040FFFF78BFD04F1A40155F8040F0C3418
:102DF000FFF784FD602CEAD12D49086806EE100A21
:102E0000F8EEC65A4FF4907115EE900AFFF776FD72
:102E1000284B4FF492711868FFF770FD264A11781D
:102E200005EE101AF8EE454A4FF4947114EE900A2C
:102E3000FFF764FD214890F800C004EE10CAF8EED8
:102E4000443A4FF4967113EE900AFFF757FD1C4B6E
:102E50004FF498711868FFF751FD1A484FF48A71C2
:102E6000FFF74CFD00204FF4C071FFF747FD002035
:102E70004FF4C271FFF742FD62B6F8BD140C00209A
:102E80000C0C0020200C002088290020000C0020C1
:102E900030270020040C0020AC2A002058290020F4
:102EA000300C0020202600200426002020270020AF
:102EB000EC2600206C270020D82A0020A126002024
:102EC000EC280020CDCC4C4038B54FF49870FFF77B
:102ED00001FD114B114D18604FF4AA70FFF7FAFC79
:102EE00028604FF4A870FFF7F5FC0D4C20604FF4FC
:102EF000AE70FFF7EFFC68604FF4AC70FFF7EAFCD0
:102F000060604FF4B270FFF7E5FCA8604FF4B0705A
:102F1000FFF7E0FCA06038BDEC2800209C270020D3
:102F20000C2B002038B5144B144D1868144C4FF47A
:102F30009871FFF7E3FC28684FF4AA71FFF7DEFCF5
:102F400020684FF4A871FFF7D9FC68684FF4AE71A0
:102F5000FFF7D4FC60684FF4AC71FFF7CFFCA868B2
:102F60004FF4B271FFF7CAFCA0684FF4B071BDE82E
:102F70003840FFF7C3BC00BFEC2800209C2700208E
:102F80000C2B002038B5174D2C783CB94FF47A70D3
:102F9000FEF788F91448154B04701C70144C217806
:102FA00001290CD1FDF732FDFDF7B6FDFFF7BAFFA1
:102FB000FDF7B6FA0320FEF7D7F9002222702B782E
:102FC000012B0AD10B4A084840F24C411160516074
:102FD0009160D1600370FDF7A3FA074B01201870D0
:102FE00038BD00BFFC26002000260020042700205A
:102FF000B027002080260020E42A0020F8B54FF4F6
:103000008E70FFF767FC0E4B0E4F0F4E0F4D186082
:10301000002404F19C00FFF75DFC47F8040F04F165
:10302000A000FFF757FC46F8040F04F1A400FFF7D7
:1030300051FC0C34602C45F8040FEAD1F8BD00BFF8
:1030400020270020AC2A002058290020202600201C
:10305000074BD3ED007AF5EEC07AF1EE10FA44BFDB
:103060009FED047A77EE877A17EE900A704700BFDB
:10307000C4260020DB0FC94038B56C482DED028B0B
:1030800002F09BFF052840F2B180684802F080FF03
:1030900023284DD1654802F07BFF01460020FEF752
:1030A000D9F8624802F074FF01460120FEF7D2F819
:1030B0005E4802F06DFF01460220FEF7CBF85B4848
:1030C00002F066FF01460320FEF7C4F8574802F0FD
:1030D0005FFF574BC0B2187041380023132820D827
:1030E000DFE800F00A1F1F0D1F181F13161F1F1FF8
:1030F0001F1F0F1F1F1B1F1D01224E4B03E04D4AB8
:103100000EE04D4B01221A700BE001224B4BFAE707
:103110004A4A05E001224A4BF5E7494A00E0494A9C
:103120001370494900220A6007E0404802F030FF6E
:103130003E4802F042FF0028F7D1444C3B489FED47
:10314000448AD4ED003ADFED438AB0EE483A03EE0C
:10315000A83AFDEEC32A12EE905AE9B202F0A8FE98
:10316000290A3248C9B202F0A3FED4ED011A9FED3C
:103170003A2AB0EE481A01EE821A2C48FDEEC10A36
:1031800010EE904AE1B202F093FE220AD1B2274833
:1031900002F08EFEFFF75CFF07EE100A07EE288AAA
:1031A0002248BDEEC88A18EE104AE1B2240A02F0A5
:1031B0007FFEE1B21D4802F07BFEFEF7F1FD9FEDC0
:1031C000270A06EE900A06EE800A1848FDEEC07A3D
:1031D00017EE904AE1B202F06BFE230A1348D9B20F
:1031E000BDEC028BBDE8384002F062BE164C23688D
:1031F000581C3228206016DD104811490125057041
:103200000D7000207D21FEF725F828467D21FEF770
:1032100021F802207D21FEF71DF803200021FEF792
:1032200019F828222260BDEC028B38BD482B002003
:10323000080C0020FC260020B02700204029002098
:10324000CC2800204C290020982700201C28002092
:103250000070F54600401C4600409C460000C842F5
:1032600038B51A480378012B01D1FFF705FF184C38
:10327000FDF7A6FFE16840F24B42914201DCFFF707
:1032800081FE144B1D784DB913480278012A05D1EF
:10329000124DE46829688C42C8BF1A70104C114D59
:1032A0002078114CA0F10102534294F800C043EB86
:1032B000020EF44585F800E003D0FDF731F92978D6
:1032C0002170BDE83840FFF783B900BF4C290020CA
:1032D000702700200427002000260020EC26002074
:1032E000CC280020D82A00202C0C0020F8B500267D
:1032F00004460F46067035460F4802F05EFE28B9B8
:103300000120013603F085F8F6B206E00A4802F023
:103310003FFE60550135EDB2002625B1601910F869
:10332000013C3B2B04D0092E02D8791E8D42E3DBF1
:1033300000226255F8BD00BF482B00201FB50021B8
:103340000B2201A8009105F05DFB68460F21FFF7F5
:10335000CDFF684605F0A6FA09F01EF805B000BDDD
:1033600038B50546002403E0FFF7E8FF0134E4B276
:10337000AC42F9D138BD0000084910B51C2404FB4B
:103380000014FFF7DBFF2060FFF7D8FF6060FFF756
:10339000D5FF0023A060E360636110BD8829002091
:1033A00010B50446FFF7CAFFDFED0B7A07EE100AEF
:1033B000B4EE677AF1EE10FA4FF00000074B04D13B
:1033C000074A1C701070012010BD1870054B4FF497
:1033D0007A71196010BD00BF66E6F642B82600207B
:1033E000002600201C0C002038B5874802F0E5FDBF
:1033F000002800F09881844802F0CAFD834BC0B2D7
:1034000018703138292800F28E81DFE810F042016F
:1034100044014901580165018C018C018C018C012A
:103420008C018C018C018C018C018C018C0134008D
:103430003E004F0060009500A300B100C000D20024
:10344000E200E600F600230131012A0033018C017D
:103450008C0189018C0138013A013C018C018C01FD
:103460007801FFF76BFFFFF769FFFFF767FFBDE824
:103470003840FFF763BF0020FFF77EFF0120FFF712
:103480007BFFFFF75BFF624B0EE00320FFF774FF4B
:103490000420FFF771FF0620FFF76EFF0720FFF7FC
:1034A0006BFFFFF74BFF5B4B186038BD0220FFF747
:1034B00063FF0520FFF760FFFFF740FF00EE100AF3
:1034C000BCEEC07A544A17EE101A117038BD0820AD
:1034D000FFF752FFFFF732FF5049C1F8F800FFF73E
:1034E0002DFF03EE900A4E4BBDEEE33A83ED003A1A
:1034F000FFF724FF02EE900A4A4ABDEEE22A82ED6F
:10350000002AFFF71BFF01EE900A4749FDEEE17A22
:10351000C1ED007AFFF712FF01EE100A4348FDEEFD
:10352000C10AC0ED000AFFF709FF414B18600920EE
:10353000BDE83840FFF720BFFFF700FF3D4A1060AD
:10354000FFF7FCFE04EE900A3B48BDEEE44A80ED36
:10355000004A38BDFFF7F2FE384C2060384C04F1C9
:103560002005FFF7EBFE44F8040FAC42F9D138BD5B
:10357000FFF7E4FE05EE900A324BBDEEE55A83ED0F
:10358000005A15EE104AFFF7D9FE2F4B0DE0FFF75A
:10359000D5FE06EE900A2B49BDEEE66A81ED006A83
:1035A00016EE104AFFF7CAFE284B03EB8404206096
:1035B00038BDFFF7E5F9FFF77DFBFFF7B3FCFDF73B
:1035C00025FAFCF7ADFFFEF7C5FBBDE83840FEF776
:1035D000C1BDBDE83840FDF719BAFFF7AFFE1C4C7E
:1035E0002060FFF7ABFEFFF7A9FE6060FFF7A6FEC5
:1035F000FFF7A4FEA060FFF7A1FEFDF78DFABDE87E
:103600003840FFF78FBC00BF482B0020080C00207B
:10361000140C002004260020A12600208829002068
:103620000C0C0020040C0020200C0020300C00208A
:10363000000C00206C270020EC2600202027002012
:103640002026002044290020B02A00205C290020E8
:103650009C270020FFF772FE334C2060FFF76EFEC0
:103660006060FFF76BFEA060BDE83840FFF722BB4B
:10367000032000E00D20BDE83840FFF771BE0220B6
:10368000F9E70920F7E7FFF715FBBDE83840FCF73D
:1036900047BF012000E00220BDE83840FFF780BEB0
:1036A0000320FFF77DFE00283DD0FFF747FE00EE28
:1036B000100A1E48BDEEC07A80ED007A38BD0420A5
:1036C000FFF76EFE00282ED01948184B00214FF44A
:1036D0007A7201701A6038BD0520FFF761FE10B3E1
:1036E0000024FFF72BFE01EE100AFDEEC10A114B7C
:1036F00010EE902AE2500434102CF2D138BDFFF7BE
:103700001DFE01EE900AF7EE007AF4EE671AF1EE74
:1037100010FA094B01D1012200E000221A7038BDD5
:1037200006480121017038BD302700201C0C002004
:10373000B826002008270020F02800204C2900206F
:1037400001482C2102F000B8482B002008B50146A2
:103750000A22034802F06FF8BDE80840FFF7F0BF07
:10376000482B002008B501460A22034802F08AF8D7
:10377000BDE80840FFF7E4BF482B002038B50546F8
:10378000002404E00020FFF7EDFF0134E4B2AC4276
:10379000F8D138BD07B508F0C9FA02460B4605480E
:1037A0000221009102F028F903B05DF804EBFFF765
:1037B000C7BF00BF482B0020074B10B51C2404FBDB
:1037C00000342068FFF7E6FF6068FFF7E3FFA068BA
:1037D000BDE81040FFF7DEBF88290020844638B5D9
:1037E0000B480C466146154601F0B3FF08480949ED
:1037F00001F0AFFF084803681C4203D104480749A1
:1038000001F0A7FF02482946BDE8384001F0B1BFEA
:10381000482B002056030208DC2A00201801020869
:1038200013B50A220F21364802F033F835493448DF
:1038300001F08FFF012430A3D3E900233048009426
:1038400002F0DFF82E48304901F083FF2C482F4961
:1038500001F08FFF2A482E4901F07BFF28482D49AF
:1038600001F087FF26482C4901F073FF0A22082146
:10387000234802F00EF82248284901F06AFF04218B
:103880000A221F4802F005F821462548254AFFF77D
:10389000A5FF02212448234AFFF7A0FF082123485F
:1038A000204AFFF79BFF042121481E4AFFF796FF9D
:1038B00010212048204AFFF791FF20211F481E4A6F
:1038C000FFF78CFF40211E481B4AFFF787FF80212E
:1038D0001C48194AFFF782FF1B48174A4FF48071B2
:1038E000FFF77CFF0648194902B0BDE8104001F01F
:1038F00040BF00BFAFF30080000000A099990940CD
:10390000482B00201D010208300102083D01020879
:1039100048010208580102085F0102087301020809
:103920007C010208860102088F0102089D0102083D
:10393000A7010208B401020809020208C101020835
:10394000CF010208DF010208F001020800020208AC
:10395000F7B58E4C23786B2B264600F03D812DD891
:10396000642B00F0958019D8362B00F046820ED8D3
:10397000232B00F03D8203D8212B40F04B822EE216
:10398000242B00F02082252B40F044821FE2622B82
:103990005FD073D8612B40F03D824FE0672B00F081
:1039A000B08006D8652B00F09380662B40F0328201
:1039B00096E0692B2CD000F2D880B7E0722B00F093
:1039C000988110D86E2B00F0878106D86C2B00F000
:1039D00044816D2B40F01E825EE1702B00F08081EF
:1039E00000F280817AE1752B00F0D68106D8732B26
:1039F00000F09281742B40F00D82C4E1792B00F02D
:103A0000DB817A2B00F0DA81762B40F00382CCE167
:103A10005F4C2068FFF7BEFE6068FFF7BBFEA06842
:103A20005C4CFFF7B7FE2068FFF7B4FE6068FFF755
:103A3000B1FEA068FFF7AEFE00248CE00020FFF787
:103A4000BBFE0120FFF7B8FE534B1868FFF7A2FE3C
:103A5000AEE10320FFF7B0FE0420FFF7ADFE062025
:103A6000FFF7AAFE0720FFF7A7FE4C48006808F002
:103A70005DF90B460221024600912BE10220FFF77F
:103A80009BFE0520FFF798FE454A4648117888E1DD
:103A90000820FFF791FE4449D1F8F800FFF77AFEBD
:103AA000424B1868FFF75EFE414A1068FFF75AFE66
:103AB00040480068FFF756FE3F490868FFF752FE8E
:103AC0003E4B1868FFF766FE0920FFF775FE6FE1B1
:103AD0003B480068FFF75EFE3A4A3248116860E1F1
:103AE000394D3A4C2868FFF755FE04F1200554F88B
:103AF000040FFFF74FFEAC42F9D10220FFF73EFE64
:103B000083E1334C04F1200554F8040F08F00EF95A
:103B100002460B4623480621009101F06DFF2C213F
:103B2000204801F011FEAC42EED16EE1294C04F1C7
:103B3000200554F8040F08F0F9F8024606200B4659
:103B40000090184801F058FF2C21164801F0FCFDA8
:103B5000AC42EED159E120460134FDF74BF8E4B216
:103B6000FFF700FE032CF6D107E10020FDF736F841
:103B7000FFF7F8FD0120FDF731F8FFF7F3FD022014
:103B8000FDF72CF80146074823E100BF080C002090
:103B9000F8280020E0280020140C00200426002033
:103BA000A1260020482B0020882900200C0C002092
:103BB000040C0020200C0020300C0020000C002001
:103BC0006C270020EC260020202700202026002043
:103BD000AC2A002058290020914E924F306808F0FE
:103BE000A5F8062502460B468F48009501F004FF14
:103BF000FFF7A6FD386808F099F802460B468A4898
:103C0000009501F0F9FEFFF79BFD706808F08EF853
:103C100002460B468448009501F0EEFEFFF790FD4A
:103C2000786808F083F802460B467F48009501F05B
:103C3000E3FEFFF785FDB06808F078F802460B4612
:103C40007948009501F0D8FEFFF77AFDB86808F0D2
:103C50006DF8009502460B463CE0744C744DFCF741
:103C60000BFF2668287896FBF0F0FFF77BFD2B789A
:103C70006168002691FBF3F02660FFF773FDA268F0
:103C800095F800C0666092FBFCF167480A2201F0DB
:103C900000FEA6602E70BDE0664D286808F046F86C
:103CA000062602460B466048009601F0A5FEFFF787
:103CB00047FD686808F03AF802460B465A480096F5
:103CC00001F09AFEFFF73CFDA86808F02FF8009677
:103CD00002460B46544888E0032067E0042065E074
:103CE0000D2063E0544A504811680A2201F096FD05
:103CF00080E0524C2068FFF74DFD6068FFF74AFDF9
:103D0000FFF7A6F908F012F802460B4646480221D2
:103D1000009101F076FE7DE0494B484C1878FFF7A2
:103D200015FD2068FFF736FD6068464CFFF732FD51
:103D3000FFF78EF9FFF72EFDFEF732F8FFF72AFDA9
:103D40002078FFF70FFD00243F4820580434FFF788
:103D500009FD202CF8D100243C4AA0580434FFF778
:103D600001FD102CF8D10420FFF708FD0020FFF71B
:103D7000F9FC37490878FFF7E9FC2B4803B0BDE8A8
:103D8000F04001F0EBBC00242F4BE0580434FFF767
:103D9000E9FC202CF8D1F0E70020FFF7E3FC2248F3
:103DA00000210A2201F075FD24E00920FFF7E6FC5E
:103DB0001D4801F0D3FC1DE00B2005E0FDF7F0FFEE
:103DC000FFF7E8FC03E00320FFF7D8FCD5E716482F
:103DD00000210A2203B0BDE8F04001F05ABD0120E5
:103DE0000DA3D3E9002300900F4801F00AFE01E083
:103DF000FFF716FD582222700CE00024134960588A
:103E00000434FFF7AFFC102CF8D1074801F0A6FCF2
:103E10005823337003B0F0BD000000A09999094009
:103E20009C2700200C2B0020482B0020602700201E
:103E3000C026002030270020DC2A00201C2800207B
:103E400000260020DC28002070270020802600208B
:103E5000D82A0020AFF3008010B53048304902F076
:103E60004BF84620002102F0E1FA4620002102F042
:103E700033FBFEF747FE4FF48A70FEF72BFDDFEDB4
:103E8000297A07EE100AB4EE677AF1EE10FA05D03F
:103E9000FEF776FD0124FEF70DFF00E00024FCF79D
:103EA000B5FE0420FDF71AFA0820FDF767F9FFF7C1
:103EB000A5F8FCF7FDFCFCF7A9FD0028FBD0FCF7FA
:103EC000D9FD1CB1FCF728FEFEF7F4FEFCF798FBC9
:103ED000FEF7FAFF14484FF07B54C466C0F88840E0
:103EE000124CFDF7F7F8216841F010032360FDF74D
:103EF00031FFFDF715FEFEF72DF9226842F0200094
:103F00002060FCF713FA0A4908604620012102F0FC
:103F1000E3FA084B00221A7010BD00BF482B0020A6
:103F200007B20100CDCC4C4088290020DC2A0020BB
:103F3000E82A0020E42A00202DE9F043654B664C76
:103F400018682268654F664E664D111A00EE101A09
:103F5000DFED657AB8EE407A2DED048BC7EE277A57
:103F600085B01A600024C7ED007AFCF705FDFCF768
:103F7000A5FD5E4A56F8040F6301D118FCF7EEFA6E
:103F80000134032C45F8040FF3D1594C594BD4F8A4
:103F90000480CDF80080A168DFF87C810191386849
:103FA000029059689A6818682368FDF7D1F894ED73
:103FB000006AFDEEC65A98ED009A15EE900A00F0E0
:103FC000B3FC94ED015AFDEEC54A074614EE900A83
:103FD00000F0AAFC94ED028ABDEEC84A3E1814EE29
:103FE000100A00F0A1FC351803EE905AB8EEE33A3F
:103FF000F7EE008A13EE100A00F07EFC02EE900A43
:10400000B0EE682A09EE622A3B4F3C4E3C4D3D4AD9
:10401000297897ED021A18EE021AD6ED001A71EE01
:10402000610A9146C2ED000A89BB94ED002AFDEEBB
:10403000C21A98ED009A11EE900A00F075FC94ED0A
:10404000011ABDEEC18A804618EE100A00F06CFC21
:1040500094ED028AFDEEC80A804410EE900A00F04A
:1040600063FC08EB000300EE103AB8EEC07A17EEDE
:10407000100A00F041FC07EE900A49EE678AD7ED7E
:10408000026A58EE286A0122C6ED006A2A701E4BA9
:104090001E4A1F48D3ED004AD9ED003AD2ED002A5E
:1040A00033EEA44A90ED003A64EE222A43EE832ACE
:1040B000C3ED002AFDF774FF16490868C30701D451
:1040C000FDF7A6FF05B0BDEC048BBDE8F043FEF79D
:1040D00097BB00BFEC2A00206C260020380C002083
:1040E0009C2A0020DC28002000247449402800205D
:1040F000E0280020F82800200C2B00206426002057
:10410000C0250020B4260020C02800205C26002006
:10411000240C0020B4270020EC280020094B0A4A78
:1041200019681268501A00EE100ADFED087AB8EE2E
:10413000407A07491A60C7EE277AC1ED007AFFF787
:104140008FB800BFE82600206C26002000247449A8
:10415000380C00200D480E4A0168126808B5531A41
:1041600000EE103ADFED0B7AB8EE407A0A4B0B49BD
:104170000260C7EE277A1868C1ED007A5968FDF72A
:1041800047FDBDE80840FDF7FFBC00BF60260020EA
:104190006C260020002474491C280020380C0020C4
:1041A00008B50D4A0D4B126819681A60501A00EED6
:1041B000100ADFED0B7AB8EE407A0A480A49037814
:1041C000C7EE277AC1ED007A2BB9FFF70DF9BDE8EC
:1041D0000840FFF7BDBB08BD6C260020BC260020B0
:1041E000002474494C290020380C0020084B094A4F
:1041F00019681268501A00EE100ADFED077AB8EE5F
:10420000407A06491A60C7EE277AC1ED007A7047F6
:10421000282800206C26002000247449380C002037
:1042200070B5204C204D214EFCF780F821682860A5
:10423000401A3060FCF766FD326842F20F739A4212
:1042400026461B4C27D92068431C2360FFF774FEC9
:104250002268D20701D4FFF761FF22680A23B2FB6C
:10426000F3F003FB102111B9FFF774FF11E0114BBC
:104270002A681968104BC1EB020C9C4502D9FFF764
:104280008FFF06E00D480168501A984201D9FFF7E8
:10429000ADFF2A6832602368632B02D904480021ED
:1042A000016070BDE82A00206C2600202C28002028
:1042B000B4270020BC260020A0860100282800206A
:1042C00008B5FFF7C9FDFFF7ABFFFCE709490A484E
:1042D00091ED000AB7EE007A77EE407A08B5042136
:1042E000C0ED007A0548FCF7ADF9FCF71FF8044B68
:1042F000186008BD240C00205C2600203428002013
:10430000FC27002010B50C888368A4B24FF6FF701C
:1043100084420B4408D008881FFA80FC944508D1D9
:1043200002E00A68013206D104319942F9D3002033
:1043300010BD832010BD832010BD38B50B889BB203
:10434000581E0C464FF6FD7281B2914203D84EF6CC
:10435000EE65AB4203D16288511C8DB200E00025AE
:104360002046FBF783FF052805D1A01C2946BDE8A0
:104370003840FBF793BF38BD70B505460C4616466E
:10438000FFF7C0FF60B128462146FFF7D6FF05289A
:1043900006D1284621463246BDE87040FFF7B2BF3D
:1043A00070BD036842681988108889B210B580B260
:1043B00019B94FF6FF74A04207D040B94FF6FF730A
:1043C00099420CBF1046002010BD184610BD0020B9
:1043D00010BD70B5856800204D19063113E00C88BA
:1043E0004FF6FF73A4B29C420CD094420AD00B1D2E
:1043F00004E01E88B6B2A64204D00433AB42F8D320
:10440000013080B20431A942E9D370BD2DE9F74FE4
:104410009B46836805460C46164601EB030A0F1DB2
:1044200003E03A68013203D004375745F9D344E03A
:10443000301DA3F102080190B04427E0B8F8001045
:104440004FF6FF731FFA81F999451DD0D9451BD04E
:10445000A31D05E01A881FFA82FCCC4514D0043352
:10446000BB42F7D327E038F8023C384699B2FBF755
:1044700015FF052805D1B81C4946FBF70FFF052895
:1044800001D0054614E00437A8F1040801988045DE
:10449000D4D8284631464FF6FF72FFF76DFF054628
:1044A00030B929462046FBF7F9FE052818BF054616
:1044B0002846BDE8FE8F5745D5D38125F8E72DE97D
:1044C000F04705460E461746FFF76BFF04460028E7
:1044D00066D0AB6800EB0309A9F1020314E0188869
:1044E00082B2B2420FD133F8021C981E8BB2BB428B
:1044F00059D04FF6FF7C634508D13946FBF7CEFE15
:10450000052803D14FE0043BA342E8D804F1040896
:1045100015E0D8F8003001330FD140463946FBF79B
:10452000BDFE052843D108F102003146FBF7B6FE77
:10453000052808BF0020BDE8F08708F10408C84539
:10454000E7D3214632462846FFF743FFAB68421CBB
:10455000990892B2481E824228D2D5F80480444578
:1045600008BFD5F800804EF6EE614046FBF796FE98
:1045700005281CD108F104003946FBF78FFE0528F9
:1045800015D108F106003146FBF788FE05280ED14B
:104590002846414622463346BDE8F047FFF736BF7E
:1045A000AB20BDE8F0870020BDE8F0878120BDE8A2
:1045B000F08700000449054A4FF4804C80E806105B
:1045C00084228281704700BF0080000800C000087C
:1045D00010B50446FBF78EFE216820460022FFF747
:1045E000CBFE0146B0B92068B0F800C04FF6FF73AB
:1045F0001FFA8CF29A4205D1FBF750FE052801D034
:10460000014607E0616820464FF6FF72BDE81040A2
:10461000FFF7B2BE084610BDF8B50446FBF76AFEC8
:10462000AB202268A08117886668BFB233884EF637
:10463000EE618F429BB21CD04FF6FF75AF4202D0A5
:10464000002F31D039E013B92046114609E08B42E2
:1046500009D100213046FBF721FE05283ED1216813
:1046600020463A4638E0BB4239D12046FFF7B0FF3A
:1046700034E02BB91146204632464FF6FF7319E05D
:104680004FF6FF7293422AD1204631461A46FFF771
:1046900073FE0546A08110BB20682946FBF7FEFD8E
:1046A00005281BD1A5811AE0CBB18B4220463146AB
:1046B00011D12B46FFF7AAFE10E013B92046114690
:1046C00009E08B420BD100213046FBF7E7FD0528BE
:1046D00004D1216820462A46FFF74EFEA081A0891A
:1046E000F8BD70B50D464FF0FF3111808389842BE2
:1046F0000446164604D1FFF78FFF08B1A08970BDAC
:104700002046FFF74EFEA0B1A3689A1E131806308C
:104710000BE0B3F800C01FFA8CF1A94204D133F8C2
:10472000020C3080002070BD043B8342F1D2822015
:1047300070BDAB2070BD07B50DF10602FFF7D1FFCC
:10474000BDF806000EBD8389842B70B504460D4666
:10475000164604D1FFF760FF08B1A08970BD4FF67F
:10476000FF70854206D0204629463246BDE870409B
:10477000FFF7A5BE822070BD0148FFF71BBF00BF39
:10478000182B0020014802F02BB800BF7C2B002022
:1047900002F010B8034610B506480C46194601F061
:1047A000B0FF04482146FFF7F3FF0248BDE8104080
:1047B00002F03BB87C2B0020FFF7E4BF10B5FFF7F9
:1047C000E1FF0446FFF7DEFF40EA042010BD08B514
:1047D000FFF7F4FF00B208BD10B5044621460B48B0
:1047E00001F08FFF00210948FFF7D2FF074802F0D0
:1047F0001CF8642001F00DFE21460122034801F05F
:10480000D5FFBDE81040FFF7BDBF00BF7C2B0020E7
:1048100038B503460C4609481946154601F071FFA4
:1048200021460648FFF7B4FF04482946FFF7B0FFCA
:104830000248BDE8384001F0F8BF00BF7C2B0020E3
:1048400007EE102AF7EE006AB4EE667AF1EE10FA7F
:1048500007EE900A06EE101A07D076EEC76A66EEEB
:10486000266A47EE876AF0EE667A17EE900A70477E
:10487000F0B510E05C1C50F8237050F82460B7428B
:1048800004DD40F8247040F823600025E3B24C1E9C
:10489000A342EFDB15B900230125F8E7056850F8BE
:1048A0002430EB1A002BB8BF5B42136001EBD172CE
:1048B000511050F82100F0BD07EE100AB5EEC07A95
:1048C000F1EE10FA07EE901A04DDF5EEC07AF1EE83
:1048D00010FA0CD4B5EEC07AF1EE10FA09D5F5EE67
:1048E000C07AF1EE10FAD4BF0020012070470120F9
:1048F00070470020704700000A49A1EB600300EEFA
:10490000103A00EE900A20EE806AF0EE087A46EE49
:10491000407AB6EE001A60EE016A26EEA77A17EE2C
:10492000100A7047DF59375F4043704707292FD877
:10493000DFE801F004090F14191E232903689A689F
:1049400042F03D0203E00368986840F474629A60A4
:1049500070470368996841F47412F8E703689A682D
:1049600042F07462F3E70368D86840F03D0208E063
:104970000368D96841F4746203E00368DA6842F4BA
:104980007412DA6070470368D96841F07460D860C7
:10499000704738B54B1C50F8333005460C4633B1E0
:1049A000984728462146BDE83840FFF7BFBF38BDCD
:1049B000024B00211868FFF7ECBF00BFCC0C0020B1
:1049C000024B01211868FFF7E4BF00BFCC0C0020A8
:1049D000024B02211868FFF7DCBF00BFCC0C00209F
:1049E000024B03211868FFF7D4BF00BFCC0C002096
:1049F000024B04211868FFF7CCBF00BFCC0C00208D
:104A0000024B05211868FFF7C4BF00BFCC0C002083
:104A1000024B06211868FFF7BCBF00BFCC0C00207A
:104A2000024B07211868FFF7B4BF00BFCC0C002071
:104A3000024B00211868FFF7ACBF00BFD00C00206C
:104A4000024B01211868FFF7A4BF00BFD00C002063
:104A5000024B02211868FFF79CBF00BFD00C00205A
:104A6000024B03211868FFF794BF00BFD00C002051
:104A7000024B04211868FFF78CBF00BFD00C002048
:104A8000024B05211868FFF784BF00BFD00C00203F
:104A9000024B06211868FFF77CBF00BFD00C002036
:104AA000024B07211868FFF774BF00BFD00C00202D
:104AB000024B586100BF00BF704700BF003C01407F
:104AC000064B10B553F83030044633B198470120F7
:104AD000A040BDE81040FFF7EBBF10BDD40C002094
:104AE0000E4B2DE9F0410D465C69064600270EE0AD
:104AF0004FF0010000FA06F818EA040F06D0084942
:104B000051F8363013B1984747EA08070136AE42EC
:104B1000EED93846BDE8F041FFF7CABF003C01407E
:104B2000D40C00200020FFF7CBBF0120FFF7C8BF47
:104B30000220FFF7C5BF0320FFF7C2BF0420FFF725
:104B4000BFBF05200921FFF7CBBF0A200F21FFF7C8
:104B5000C7BF10B50446007900F008FA2079BDE817
:104B6000104000F0E7B9000008B50B48FFF7F1FF6F
:104B70000A48FFF7EEFF0A48FFF7EBFF0948FFF787
:104B8000E8FF0948FFF7E5FF0848FFF7E2FF08489C
:104B9000BDE80840FFF7DDBF540D00205C0D00208C
:104BA000640D00206C0D0020740D00207C0D002091
:104BB000840D0020036870B54800032616FA00F43F
:104BC0001D68E44302F0030604EA050C16FA00F53A
:104BD0004CEA0506950805F0030585401E60DE6871
:104BE00004EA060C45EA0C051609DD6006F003062A
:104BF0009D6816FA00F0920904EA050C02F001041F
:104C000014FA01F2012414FA01F140EA0C00986050
:104C1000586820EA010042EA0001596070BD03684B
:104C2000C80801F0070130B589000F248C4002F05C
:104C30000F0212FA01F1083053F8205025EA04045B
:104C40000C4343F8204030BD036819617047036886
:104C50001A6812F4985FFBD1196841F480701860EB
:104C6000704703681A6812F4985FFBD1196841F421
:104C7000007018601A6812F4985FFBD170470368DF
:104C8000586841EA00025A6070470368586820EA91
:104C900001025A6070470368186820F480621A6045
:104CA00070470000014B1868704700BFB82C002007
:104CB000016810B58A69044602F4706300228361BA
:104CC0004A618A61FFF7CDFF20464FF4E061FFF7AC
:104CD000DCFFFF23637310BDF8B5036805695F69E6
:104CE0000446AE789B69FFF7DDFF6061F80706F0C8
:104CF000010613D50020E8804FF480612046FFF7BD
:104D0000BEFF26B121680F6847F480620A60B5F8DB
:104D100000C0236846EA4C0018610027B9071ED579
:104D2000AB8876B1012B17D12046FFF7B4FFE2899B
:104D30002046012A02D9FFF78AFF0DE0FFF791FF15
:104D40000AE0012B0AD0E888A968471C095CEF80BB
:104D50002046FFF779FF01E0002700E0374607F023
:104D6000840EBEF1800F1BD1E789AFB1EF88A86830
:104D70007A1CC15DEA802046FFF766FFB5F806C0E1
:104D8000AB889C450BD14FF480612046FFF77DFF37
:104D9000E389591EE18102E000F060FC00E0002799
:104DA00007F08402842A17D1E689204656B1FFF71E
:104DB0004EFF23685F69FA07FCD5206900270C3095
:104DC000206109E0FFF74DFF4FF400712046FFF727
:104DD0005CFF0221617337467B0627D52368E8888C
:104DE0001969AA68431C1154AA889BB2501E8342B9
:104DF000EB800ED12046FFF74EFFE18920460229C5
:104E000003D9BDE8F840FFF722BFBDE8F840FFF73F
:104E100028BF93420AD1E3895A1E90B2E08110B9AB
:104E200002216173F8BD20690C302061F8BD0000DB
:104E30000148FFF751BF00BF8C0D00200148FFF76C
:104E40004BBF00BFA80D00200148FFF731BF00BFD6
:104E50008C0D00200148FFF72BBF00BFA80D0020DC
:104E600001EBC001880000F184431A607047000024
:104E7000244B186840F480321A604FF4A063214A32
:104E80001168890301D4013BF9D112681D4B9203CB
:104E900036D51A6CDFF888C042F080501A4A186480
:104EA000116841F48040106099689960986840F4F6
:104EB00000429A609968154A41F4A05098601449DC
:104EC000144882E80310144A5A60196841F080704F
:104ED00018600C4B19688801FBD5104A40F2056137
:104EE0001160986820F0030199609A6842F002000E
:104EF00098600448836803F00C0CBCF1080FF8D1EB
:104F0000704700BF0038024000700040282B00208E
:104F100000BD010580DE800208544007003C0240CD
:104F2000007A030AFFF7A4BF014B13F81000704783
:104F30003C02020838B50446FFF7F6FF094B0A4960
:104F400003EB440451F8205064782846214601229E
:104F5000FFF786FF284621460022BDE83840FFF7CC
:104F60007FBF00BF3C0202089402020810B504464D
:104F7000FFF7DAFF0549064A01EB440352F8200027
:104F800059780122BDE81040FFF76ABF3C020208D1
:104F90002802020808B5FFF7C7FF024B53F82000AC
:104FA00008BD00BF282B002008B5FFF7F3FF400025
:104FB00008BD7047014B07221A60704710E000E0FF
:104FC000014B5860FFF7F6BF10E000E008B572B67D
:104FD0000548064B1B6801684A1C026062B6044B18
:104FE0001B6803B1984708BDB82C002010E000E012
:104FF000382B002070B54E1E6FF0070501F001013F
:1050000069430831C9B2FF258D40134313FA01F1FA
:1050100000687410183004F0010450F8246026EA87
:1050200005050D4340F8245070BD023138B550F8E5
:1050300021301546046823B19847236923EA050502
:10504000256138BD07218022FFF7EFBF0021012233
:10505000FFF7EBBFF8B505680646EB682F691F4000
:1050600017F0400403D0046A0CB1A0474024BB06EB
:1050700004D5F36913B1984744F02004286920EA65
:1050800004042C61F8BDF8B507680546FB683E6965
:105090001E4016F0100403D084690CB1A047102400
:1050A000300704D56B6913B1984744F008047107C1
:1050B00004D52B6913B1984744F00404B20704D512
:1050C000EB6813B1984744F00204386920EA0404FD
:1050D0003C61F8BDF8B507680546FB683E691E40AF
:1050E00016F0400403D0046A0CB1A0474024F30634
:1050F00004D5AB6913B1984744F01004300704D5C8
:105100006B6913B1984744F00804710704D52B6903
:1051100013B1984744F00404B20704D5EB6813B107
:10512000984744F00204F30704D5AB6813B19847DD
:1051300044F00104386920EA04043C61F8BD002110
:105140000122FFF772BF01EBC001880000F184402B
:10515000704708B500680C30FFF7F5FF00230360C7
:1051600008BD08B50068013920308900FFF7EBFF62
:105170000123036008BD10B504460079FFF7F6FE71
:105180002079BDE81040FFF7D5BE00000D4A10B5EC
:1051900004461068A0470C490868A0470B480068FF
:1051A000A0470B4B1868A0470A4A1068A0470A4955
:1051B0000868A04709480068A047094B1868A0473D
:1051C00010BD00BF700E0020740E0020780E00206D
:1051D0007C0E0020800E0020840E0020880E00200F
:1051E0008C0E002038B50D4604460235FFF7B1FF9E
:1051F000002344F8253038BD70B50446481EC3B2BC
:10520000032B0D46164604D91C48AD211C4A00F05C
:10521000EFF96179022904D11848B021194A00F048
:10522000E7F96279022A27D0012E10D002D3022E8C
:1052300022D115E020462946FFF7D4FF2068691ED9
:1052400020308900FFF77FFF0023036070BD2046F8
:105250002946FFF77EFF204629466022082303E007
:105260002046294610220023FFF7C4FE2046294687
:10527000BDE87040FFF775BF70BD00BFA80202080F
:10528000FC02020818030208014B1868FFF7DABE97
:10529000700E0020014B1868FFF7D8BE700E00207A
:1052A000014B1868FFF7D6BE700E0020014B18683E
:1052B000FFF7E9BE700E0020014B1868FFF70ABF28
:1052C000740E0020014B1868FFF704BF780E002011
:1052D000014B1868FFF7FEBE7C0E0020014B1868DA
:1052E000FFF7F8BE800E0020014B1868FFF727BFBC
:1052F000840E0020014B1868FFF721BF880E0020A4
:10530000014B1868FFF79EBE8C0E0020014B1868F9
:10531000FFF79CBE8C0E0020014B1868FFF79ABE69
:105320008C0E0020014B1868FFF7ADBE8C0E0020DC
:10533000C38881889AB28BB2C188B0F804C0D31AEE
:1053400089B21FFA8CF2914203D201898AB2501CB1
:105350001B1898B27047C2888388511C994207D0A5
:105360000089904206D1D3F1010038BF0020704778
:105370000120704700207047C3880268D154C38859
:1053800002899A4201D0013300E00023C3807047B4
:1053900003468288198900689142805C01D00132FD
:1053A00000E000229A8070470022FF238280C280A2
:1053B000038101607047420102F18440C16170477E
:1053C00010B5044604F120010430FFF7EDFF04F1AD
:1053D000100004F59071FFF7E7FF94F82002FFF743
:1053E000C5FD94F821325AB2002A08DB012103F0EE
:1053F0001F0011FA00F30249521141F8223010BD8A
:1054000000E100E038B5044690F820020D46FFF7B1
:10541000C1FD19214143A800B1FBF0F26420B2FBA9
:10542000F0F529010D0900FB15231A013232B2FBF8
:10543000F0F303F00F0242EA0100236881B29960A1
:1054400038BD03682C21D960D86840F40052DA6076
:105450007047006801210C30FFF7ADBF00680021E4
:105460000C30FFF7A8BF37B50368044619680191EF
:10547000019A920610D55D68041D2046EDB2FFF733
:105480006AFF10B12046FFF783FF2046294603B08C
:10549000BDE83040FFF770BF019B1B0610D500F13F
:1054A00010052846FFF744FF28B128462468FFF777
:1054B0006FFF606004E02046FFF7D0FF00BF00BF31
:1054C00003B030BD2DE9F84304460D4617460026CB
:1054D000BE4210D004F11008404615F80690FFF7C0
:1054E0003AFF40B940464946FFF746FF2046FFF7DE
:1054F000B0FF0136ECE73046BDE8F88330B505462D
:1055000085B000240A20B1FBF0F300FB1312303207
:105510000DF8042019460134002BF3D10BE01DF8DF
:1055200004108DF80F1028460DF10F010122FFF72E
:10553000C9FF0028F7D014F1FF34F0D205B030BD18
:10554000014B1868FFF78FBF00110020014B18684E
:10555000FFF789BF04110020014B1868FFF783BFD4
:1055600008110020014B1868FFF77DBF9C1900202F
:10557000014B1868FFF777BFA019002013B5044648
:105580008DF8071020460DF107010122FFF79AFF61
:105590000028F7D01CBD38B505460C4602E0284669
:1055A000FFF7ECFF14F8011B0029F8D138BD2023C8
:1055B00009B10383704743837047000038B505463F
:1055C00062B6094C09492068FFF7E5FF20682946C3
:1055D000FFF794FF20680A21FFF7D0FF20680D2114
:1055E000FFF7CCFFFEE700BF0411002031030208E3
:1055F000F8B5164E05460C4630684FF4E1311746B3
:10560000FFF700FF30681249FFF7C5FF30683946E1
:10561000FFF7C1FF30680F49FFF7BDFF306829462B
:10562000FFF7B9FF30680C49FFF7B5FF3068214636
:10563000FFF764FF30680A21FFF7A0FF30680D21F3
:10564000FFF79CFF4FF0FF30FFF7B8FF0411002079
:105650003F0302085503020856030208F8B5114B30
:1056600005211C6821222046FFF7A4FA00252E46BA
:105670000127B6F5006F03D0002E08BF012701E017
:105680004FF0FF37B5F5006F04BFF6190025B5429E
:10569000206801D2012100E00021FFF788FF0135D9
:1056A000E7E700BF2402020800000000000000003D
:1056B000012007E0022005E0032003E0042001E0D0
:1056C0000520FFE7FEE70D4A0121116072B60C4A82
:1056D00000211160064902B4074902B486B00549A9
:1056E0008E467047AFF30080AFF30080AFF30080C9
:1056F00000000061F9FFFFFFBD55010814ED00E057
:1057000010E000E0AFF30080AFF30080AFF3008063
:1057100038B505460C4603E02868036828469847D4
:1057200014F8011B0029F7D138BD70B504461546A1
:105730000E4605E0206816F8011B036820469847CE
:1057400015F1FF35F6D270BD026808B513689847A9
:1057500008BD026808B55368984708BD10B50D210B
:105760000446FFF7F1FF20460A21BDE81040FFF78D
:10577000EBBF10B50446FFF7ECFF2046BDE8104034
:10578000FFF7ECBF2DE9F04716461F4690B056EAEA
:10579000070282469DF8609005D1302110B0BDE827
:1057A000F047FFF7D1BF00245FFA89F54FF00008FA
:1057B000304639462A46434606F0C2FF30460DF8C9
:1057C0000420394643462A4606F0BAFF06460F46ED
:1057D000013456EA0703E7D10DE010AA131913F8B4
:1057E000411C092901D8303100E03731C9B2504697
:1057F000FFF7AAFF013C002CEFD110B0BDE8F08705
:1058000070B5049C24B901680B68D1B2984770BD8B
:10581000E4B20494BDE87040FFF7B4BF13B50023B1
:1058200000920A460446FFF7EBFF204602B0BDE8AF
:105830001040FFF793BF07B500230092CAB2FFF7ED
:10584000DFFF0EBD2DE9F041069F064614461D46BA
:105850002FB901680B68D1B29847BDE8F081002CE0
:1058600075F1000305DA2D21FFF76EFF644265EB49
:105870004505FFB2304622462B460697BDE8F0416B
:10588000FFF780BF07B5CB1700920A46FFF7DAFF94
:105890000EBD10B50446FFF7F5FF2046BDE81040E9
:1058A000FFF75CBF000000002DE9F34D19460746E5
:1058B000164610461C460022002306F01BFD9DF8EC
:1058C0002880012538B13046214643A3D3E900237F
:1058D00006F006FD06E03046214641A3D3E9002349
:1058E00006F0F4FC00B90546EDB230462146002230
:1058F00000236DB106F0E0FC18B138462D21FFF70A
:1059000023FF3949384602B0BDE8F04DFFF721BF0B
:1059100006F0D2FC28B138462D21FFF715FF04F11F
:10592000004400250022314B09E0104619460022B0
:105930002F4B06F079FB013502460B46EDB245458B
:10594000F3D12146304606F093F882468B4606F0A6
:105950000DFF04460D4606F00FFA02460B46504670
:10596000594606F083F80A238246009338462246B9
:105970002B468B46FFF766FFB8F1000F1FD0384665
:105980001C49FFF7E6FE1AE0194B00225046594623
:1059900006F020FA8B46824606F0B6FC04460A2240
:1059A00038462146FFF76EFF204606F0ADF9024665
:1059B0000B465046594606F059F882468B4608F188
:1059C000FF305FFA80F8B8F1FF0FDDD102B0BDE81B
:1059D000F08D00BFAFF30080800350726C92DF4304
:1059E000800350726C92DFC3780302080000E03F2E
:1059F00000002440870302089DF800100091FFF783
:105A000053BF13B5049904460091FFF7F5FF2046F4
:105A100002B0BDE81040FFF7A1BE01EBC001880055
:105A200000F18440704770B5044600F0F2FF204654
:105A30004FF4602100F0FAFF266814210836304642
:105A4000FFF7EBFF0125002105603046FFF7E5FF7A
:105A50000560204601F018F820460521BDE8704099
:105A600000F0FEBFF8B506460468FFF784FB356812
:105A700000212846FFF7D1FF002380220360226027
:105A80000122A2622361E3607379626113B19342E0
:105A90002BD102E04FF4004060644FF6FF71E962E1
:105AA0000022012303F001006FF00706704305F1A7
:105AB000340148F6FF74083041F82240C0B2FF2498
:105AC00014FA00F6571005F118015FFA87FC51F837
:105AD0002C70013327EA0606682717FA00F4013212
